{
  "_format": "hh-sol-artifact-1",
  "contractName": "PrivateLiquidationEngine",
  "sourceName": "contracts/PrivateLiquidationEngine.sol",
  "abi": [
    {
      "inputs": [
        {
          "internalType": "address",
          "name": "_collateralVault",
          "type": "address"
        },
        {
          "internalType": "address",
          "name": "_borrowManager",
          "type": "address"
        }
      ],
      "stateMutability": "nonpayable",
      "type": "constructor"
    },
    {
      "inputs": [],
      "name": "InvalidKMSSignatures",
      "type": "error"
    },
    {
      "inputs": [],
      "name": "ZamaProtocolUnsupported",
      "type": "error"
    },
    {
      "anonymous": false,
      "inputs": [
        {
          "indexed": true,
          "internalType": "address",
          "name": "user",
          "type": "address"
        },
        {
          "indexed": true,
          "internalType": "address",
          "name": "liquidator",
          "type": "address"
        }
      ],
      "name": "Liquidated",
      "type": "event"
    },
    {
      "anonymous": false,
      "inputs": [
        {
          "indexed": true,
          "internalType": "address",
          "name": "user",
          "type": "address"
        }
      ],
      "name": "LiquidationStarted",
      "type": "event"
    },
    {
      "anonymous": false,
      "inputs": [
        {
          "indexed": false,
          "internalType": "bytes32[]",
          "name": "handlesList",
          "type": "bytes32[]"
        },
        {
          "indexed": false,
          "internalType": "bytes",
          "name": "abiEncodedCleartexts",
          "type": "bytes"
        }
      ],
      "name": "PublicDecryptionVerified",
      "type": "event"
    },
    {
      "inputs": [
        {
          "internalType": "address",
          "name": "user",
          "type": "address"
        }
      ],
      "name": "auditHealth",
      "outputs": [],
      "stateMutability": "nonpayable",
      "type": "function"
    },
    {
      "inputs": [],
      "name": "borrowManager",
      "outputs": [
        {
          "internalType": "contract PrivateBorrowManager",
          "name": "",
          "type": "address"
        }
      ],
      "stateMutability": "view",
      "type": "function"
    },
    {
      "inputs": [],
      "name": "collateralVault",
      "outputs": [
        {
          "internalType": "contract PrivateCollateralVault",
          "name": "",
          "type": "address"
        }
      ],
      "stateMutability": "view",
      "type": "function"
    },
    {
      "inputs": [],
      "name": "confidentialProtocolId",
      "outputs": [
        {
          "internalType": "uint256",
          "name": "",
          "type": "uint256"
        }
      ],
      "stateMutability": "view",
      "type": "function"
    },
    {
      "inputs": [
        {
          "internalType": "address",
          "name": "user",
          "type": "address"
        }
      ],
      "name": "getPendingHealthCheck",
      "outputs": [
        {
          "internalType": "ebool",
          "name": "",
          "type": "bytes32"
        }
      ],
      "stateMutability": "view",
      "type": "function"
    },
    {
      "inputs": [
        {
          "internalType": "address",
          "name": "",
          "type": "address"
        }
      ],
      "name": "isLiquidatable",
      "outputs": [
        {
          "internalType": "bool",
          "name": "",
          "type": "bool"
        }
      ],
      "stateMutability": "view",
      "type": "function"
    },
    {
      "inputs": [
        {
          "internalType": "address",
          "name": "user",
          "type": "address"
        },
        {
          "internalType": "bytes",
          "name": "abiEncodedClearResult",
          "type": "bytes"
        },
        {
          "internalType": "bytes",
          "name": "decryptionProof",
          "type": "bytes"
        }
      ],
      "name": "resolveAudit",
      "outputs": [],
      "stateMutability": "nonpayable",
      "type": "function"
    },
    {
      "inputs": [
        {
          "internalType": "address",
          "name": "_borrow",
          "type": "address"
        }
      ],
      "name": "setBorrowManager",
      "outputs": [],
      "stateMutability": "nonpayable",
      "type": "function"
    },
    {
      "inputs": [
        {
          "internalType": "address",
          "name": "_vault",
          "type": "address"
        }
      ],
      "name": "setCollateralVault",
      "outputs": [],
      "stateMutability": "nonpayable",
      "type": "function"
    }
  ],
  "bytecode": "0x608034620002835762000f0c90601f38839003908101601f19168201906001600160401b0382118383101762000287578083916040958694855283398101031262000283576200005d60206200005583620002bb565b9201620002bb565b9062000068620002d0565b504660010362000191576200007c620002d0565b50620000876200029b565b73ca2e8f1f656cd25c01f05d0b243ab1ecd4a8ffb6815273d82385dada1ae3e969447f20a3164f6213100e7560208201527377627828a55156b04ac0dc0eb30467f1a552bb0384820152915b60018060a01b0380928186818751169660018060a01b0319977f9e7b61f58c47dc699ac88507c4f5bb9f121c03808c5676a8078fe583e46497009089825416179055826020820151167f9e7b61f58c47dc699ac88507c4f5bb9f121c03808c5676a8078fe583e464970190898254161790550151167f9e7b61f58c47dc699ac88507c4f5bb9f121c03808c5676a8078fe583e4649702908682541617905516835f5416175f551690600154161760015551610c1f9081620002ed8239f35b4662aa36a7036200020257620001a6620002d0565b50620001b16200029b565b73f0ffdc93b7e186bc2f8cb3daa75d86d1930a433d81527392c920834ec8941d2c77d188936e1f7a6f49c127602082015273be0e383937d564d7ff0bc3b46c51f0bf8d5c311a8482015291620000d3565b46617a6903620002725762000216620002d0565b50620002216200029b565b7350157cffd6bbfa2dece204a89ec419c23ef5755d815273e3a9105a3a932253a70f126eb1e3b589c643dd24602082015273be0e383937d564d7ff0bc3b46c51f0bf8d5c311a8482015291620000d3565b82516373cac13b60e01b8152600490fd5b5f80fd5b634e487b7160e01b5f52604160045260245ffd5b60405190606082016001600160401b038111838210176200028757604052565b51906001600160a01b03821682036200028357565b620002da6200029b565b905f82525f60208301525f604083015256fe6080604081815260049182361015610015575f80fd5b5f925f3560e01c918263042e02cf146108cd575081630bece79c146108a65781631c8fbb1d146108685781633a25081a146103a45781635b858b94146101435750806368a806c41461010a578063829057e3146100e25780638927b030146100bf57638cf6bda914610085575f80fd5b346100bb5760203660031901126100bb5760209181906001600160a01b036100ab610907565b1681526002845220549051908152f35b5080fd5b50346100bb57816003193601126100bb576020906100db610b54565b9051908152f35b50346100bb57816003193601126100bb5760015490516001600160a01b039091168152602090f35b8234610140576020366003190112610140576001600160a01b0361012c610907565b82546001600160a01b031916911617815580f35b80fd5b919050346103a05760031960603682011261039c57610160610907565b9267ffffffffffffffff602435818111610398576101819036908401610983565b90604435908111610398576101999036908401610983565b6102468551916101a883610945565b6001835260209586918236818701376001600160a01b03998a16808c5260028452898c2054909a906101d9876109d9565b527f9e7b61f58c47dc699ac88507c4f5bb9f121c03808c5676a8078fe583e46497025416908b8a518096819582946378542ead60e01b845260608d850152610237610227606486018d610ae3565b838682030160248701528d610b16565b91848303016044850152610b16565b03925af190811561038e578891610361575b501561035157907fc6366bab028b8d033cb362cfd1f2f3457ef4e92fc738b6788b90d5a7846367a061029b6102b9936102a888519283928a84528a840190610ae3565b8281038984015285610b16565b0390a18380825183010191016109fa565b15610306575082845260038152818420805460ff1916600117905560029052822082905533907facd74f5a0eb0d086de0eebe2d1e70d5742838c88cb2cf492fc201d39e056f7e08380a380f35b915162461bcd60e51b815291820152602160248201527f55736572206973206865616c7468792c2063616e6e6f74206c697175696461746044820152606560f81b6064820152608490fd5b845163cf6c44e960e01b81528390fd5b6103819150853d8711610387575b6103798183610961565b8101906109fa565b5f610258565b503d61036f565b86513d8a823e3d90fd5b8680fd5b8380fd5b8280fd5b83833461069e576020908160031936011261069e576103c1610907565b9060018060a01b0394855f541693868184518099819763654c629560e01b83521697888683015260249788915afa97881561085e575f9861082d575b5090818186936001541686519788809263a612ce2b60e01b82528b898301525afa9586156106a9575f966107fe575b505f7f9e7b61f58c47dc699ac88507c4f5bb9f121c03808c5676a8078fe583e464970199828b5416908751908582639cd07acb60e01b9485825260648b83015260058a8301528160449788925af1908115610731575f916107cd575b6104929250610a12565b97838c54169085607d858a5f8d5196879485938a855284015260058d8401525af1908115610731575f9161079c575b6104cb9250610a12565b8815610789575b808c85879315610774575b60649154169a5f8b519c8d948593637210768160e01b85528d8501528b84015281888401525af197881561076a575f9861073b575b50885f526002845287875f20558791881598896106d0575b7f9e7b61f58c47dc699ac88507c4f5bb9f121c03808c5676a8078fe583e4649700938585541690813b1561069e575f90848b838e519586948593635ca4b5b160e11b85528401528d30908401525af180156106c6576106b3575b5098610637575b505088995085989798519661059f88610945565b600188528336818a01376105b2886109d9565b52541690813b15610398578680946105e1875198899687958694637d6e912360e11b8652850152830190610ae3565b03925af190811561062e575061061a575b50807f7f62ed89ea2c6fb057e4ea77729c1d3f18056339791fce29ac89760197b45b2991a280f35b6106239061091d565b6100bb5781836105f2565b513d84823e3d90fd5b84929850835f9c54169188519c8d93849283528d8a84015281898401525af180156106a95788995f99989991610674575b50958a8099989961058b565b809850838092503d83116106a2575b61068d8183610961565b8101031261069e578896518a610668565b5f80fd5b503d610683565b85513d5f823e3d90fd5b6106be919c5061091d565b5f9a8d610584565b8a513d5f823e3d90fd5b9250838c5416855f838a828d5195869485938a8552840152818d8401525af1908115610731575f91610704575b509261052a565b90508581813d831161072a575b61071b8183610961565b8101031261069e57518d6106fd565b503d610711565b89513d5f823e3d90fd5b9097508381813d8311610763575b6107538183610961565b8101031261069e5751968b610512565b503d610749565b87513d5f823e3d90fd5b6064919250610781610b83565b9291506104dd565b975083610794610b83565b9890506104d2565b90508582813d83116107c6575b6107b38183610961565b8101031261069e576104cb9151906104c1565b503d6107a9565b90508582813d83116107f7575b6107e48183610961565b8101031261069e57610492915190610488565b503d6107da565b9095508181813d8311610826575b6108168183610961565b8101031261069e5751948961042c565b503d61080c565b918091985082813d8311610857575b6108468183610961565b8101031261069e57905196846103fd565b503d61083c565b84513d5f823e3d90fd5b3461069e57602036600319011261069e576001600160a01b03610889610907565b166bffffffffffffffffffffffff60a01b60015416176001555f80f35b823461069e575f36600319011261069e575f5490516001600160a01b039091168152602090f35b83903461069e57602036600319011261069e5760209160ff906001600160a01b036108f6610907565b165f52600384525f20541615158152f35b600435906001600160a01b038216820361069e57565b67ffffffffffffffff811161093157604052565b634e487b7160e01b5f52604160045260245ffd5b6040810190811067ffffffffffffffff82111761093157604052565b90601f8019910116810190811067ffffffffffffffff82111761093157604052565b81601f8201121561069e5780359067ffffffffffffffff821161093157604051926109b8601f8401601f191660200185610961565b8284526020838301011161069e57815f926020809301838601378301015290565b8051156109e65760200190565b634e487b7160e01b5f52603260045260245ffd5b9081602091031261069e5751801515810361069e5790565b908115610ad3575b8015610ac1575b602090606460018060a01b037f9e7b61f58c47dc699ac88507c4f5bb9f121c03808c5676a8078fe583e46497015416935f6040519586948593630afe14ad60e31b8552600485015260248401528160448401525af1908115610ab6575f91610a87575090565b90506020813d602011610aae575b81610aa260209383610961565b8101031261069e575190565b3d9150610a95565b6040513d5f823e3d90fd5b506020610acc610b83565b9050610a21565b9050610add610b83565b90610a1a565b9081518082526020808093019301915f5b828110610b02575050505090565b835185529381019392810192600101610af4565b91908251928382525f5b848110610b40575050825f602080949584010152601f8019910116010190565b602081830181015184830182015201610b20565b46600103610b6157600190565b4662aa36a703610b715761271190565b617a694614610b7e575f90565b5f1990565b7f9e7b61f58c47dc699ac88507c4f5bb9f121c03808c5676a8078fe583e464970154604051639cd07acb60e01b81525f60048201819052600560248301529091602091839160449183916001600160a01b03165af1908115610ab6575f91610a8757509056fea2646970667358221220fd48502e7e2e9316fffa061d36bfcda1ac928e03c2f8310ff212eb43332a95ce64736f6c63430008180033",
  "linkReferences": {},
  "deployedLinkReferences": {}
}