{
  "_format": "hh-sol-artifact-1",
  "contractName": "PrivateLendingPool",
  "sourceName": "contracts/PrivateLendingPool.sol",
  "abi": [
    {
      "inputs": [],
      "stateMutability": "nonpayable",
      "type": "constructor"
    },
    {
      "inputs": [
        {
          "internalType": "bytes32",
          "name": "handle",
          "type": "bytes32"
        },
        {
          "internalType": "address",
          "name": "sender",
          "type": "address"
        }
      ],
      "name": "SenderNotAllowedToUseHandle",
      "type": "error"
    },
    {
      "inputs": [],
      "name": "ZamaProtocolUnsupported",
      "type": "error"
    },
    {
      "anonymous": false,
      "inputs": [
        {
          "indexed": true,
          "internalType": "address",
          "name": "user",
          "type": "address"
        }
      ],
      "name": "Supplied",
      "type": "event"
    },
    {
      "anonymous": false,
      "inputs": [
        {
          "indexed": true,
          "internalType": "address",
          "name": "user",
          "type": "address"
        }
      ],
      "name": "Withdrawn",
      "type": "event"
    },
    {
      "inputs": [],
      "name": "borrowManager",
      "outputs": [
        {
          "internalType": "address",
          "name": "",
          "type": "address"
        }
      ],
      "stateMutability": "view",
      "type": "function"
    },
    {
      "inputs": [],
      "name": "confidentialProtocolId",
      "outputs": [
        {
          "internalType": "uint256",
          "name": "",
          "type": "uint256"
        }
      ],
      "stateMutability": "view",
      "type": "function"
    },
    {
      "inputs": [
        {
          "internalType": "address",
          "name": "user",
          "type": "address"
        }
      ],
      "name": "getSuppliedAmount",
      "outputs": [
        {
          "internalType": "euint64",
          "name": "",
          "type": "bytes32"
        }
      ],
      "stateMutability": "view",
      "type": "function"
    },
    {
      "inputs": [],
      "name": "getTotalLiquidity",
      "outputs": [
        {
          "internalType": "euint64",
          "name": "",
          "type": "bytes32"
        }
      ],
      "stateMutability": "view",
      "type": "function"
    },
    {
      "inputs": [
        {
          "internalType": "address",
          "name": "_borrow",
          "type": "address"
        }
      ],
      "name": "setBorrowManager",
      "outputs": [],
      "stateMutability": "nonpayable",
      "type": "function"
    },
    {
      "inputs": [
        {
          "internalType": "externalEuint64",
          "name": "encryptedAmount",
          "type": "bytes32"
        },
        {
          "internalType": "bytes",
          "name": "inputProof",
          "type": "bytes"
        }
      ],
      "name": "supply",
      "outputs": [],
      "stateMutability": "nonpayable",
      "type": "function"
    },
    {
      "inputs": [
        {
          "internalType": "externalEuint64",
          "name": "encryptedAmount",
          "type": "bytes32"
        },
        {
          "internalType": "bytes",
          "name": "inputProof",
          "type": "bytes"
        }
      ],
      "name": "withdraw",
      "outputs": [],
      "stateMutability": "nonpayable",
      "type": "function"
    }
  ],
  "bytecode": "0x60406080815234620001ab5762000015620002d3565b5046600103620001c25762000029620002d3565b5080516200003781620002b7565b73ca2e8f1f656cd25c01f05d0b243ab1ecd4a8ffb6815273d82385dada1ae3e969447f20a3164f6213100e7560208201527377627828a55156b04ac0dc0eb30467f1a552bb03828201525b80517f9e7b61f58c47dc699ac88507c4f5bb9f121c03808c5676a8078fe583e464970080546001600160a01b03199081166001600160a01b0393841617825560208401515f8051602062000e7083398151915280548316918516919091179055928401517f9e7b61f58c47dc699ac88507c4f5bb9f121c03808c5676a8078fe583e46497028054909416908316179092556200011d620002f3565b91826001558215620001af575b541690813b15620001ab575f916044839285519485938492635ca4b5b160e11b845260048401523060248401525af18015620001a15762000175575b5051610ad390816200039d8239f35b6001600160401b0381116200018d5781525f62000166565b634e487b7160e01b5f52604160045260245ffd5b82513d5f823e3d90fd5b5f80fd5b9150620001bb620002f3565b916200012a565b4662aa36a7036200023557620001d7620002d3565b508051620001e581620002b7565b73f0ffdc93b7e186bc2f8cb3daa75d86d1930a433d81527392c920834ec8941d2c77d188936e1f7a6f49c127602082015273be0e383937d564d7ff0bc3b46c51f0bf8d5c311a8282015262000082565b46617a6903620002a75762000249620002d3565b5080516200025781620002b7565b7350157cffd6bbfa2dece204a89ec419c23ef5755d815273e3a9105a3a932253a70f126eb1e3b589c643dd24602082015273be0e383937d564d7ff0bc3b46c51f0bf8d5c311a8282015262000082565b516373cac13b60e01b8152600490fd5b606081019081106001600160401b038211176200018d57604052565b60405190620002e282620002b7565b5f6040838281528260208201520152565b5f8051602062000e7083398151915254604051639cd07acb60e01b81525f60048201819052600560248301529091602091839160449183916001600160a01b03165af190811562000391575f9162000349575090565b905060203d60201162000389575b601f8101601f191682016001600160401b038111838210176200018d57602091839160405281010312620001ab575190565b503d62000357565b6040513d5f823e3d90fdfe6080604090808252600480361015610015575f80fd5b5f3560e01c9182631c8fbb1d1461050057826335c7e925146104e6575081634a2e35ba146102085781634f8e33f0146101ce57508063829057e3146101a65780638927b030146101835763946835c51461006d575f80fd5b3461017f576100c861009461008e61008436610541565b92919236916105d8565b9061061e565b335f525f60205280835f20805415155f1461017957906100b4915461092a565b335f525f602052835f20555b60015461092a565b600155335f525f602052805f20548015610166575b6100e89030906109ae565b335f525f6020525f20548015610153575b6101049033906109ae565b6001548015610140575b6101199030906109ae565b337f6663c4b4f37934bad95a7e7828d7613470512e596e6278df939ba459ae7e0f635f80a2005b5061011961014c610a2a565b905061010e565b5061010461015f610a2a565b90506100f9565b506100e8610172610a2a565b90506100dd565b556100c0565b5f80fd5b503461017f575f36600319011261017f5760209061019f6108fb565b9051908152f35b503461017f575f36600319011261017f5760025490516001600160a01b039091168152602090f35b90503461017f57602036600319011261017f57356001600160a01b038116919082900361017f576020915f525f8252805f20549051908152f35b90503461017f5761021e61008e61008436610541565b335f526020905f825283805f205491829481801594856104d6575b801593846104c6575b8760018060a01b039260645f80516020610a7e833981519152935f868654169a519a8b948593631d44e90160e21b85528b85015260248401528160448401525af19485156104bc5788965f9661048b575b508993978615610415575b6103f7575b9160649493915f936103e7575b5416908a519788968795637702dcff60e01b8752860152602485015260448401525af19081156103dd575f916103b0575b50806102f1610303925f95610848565b33855284845285852055600154610848565b60015533825281815282822054801561039d575b6103229030906109ae565b338252525f2054801561038a575b61033b9033906109ae565b6001548015610377575b6103509030906109ae565b337ff45a04d08a70caa7eb4b747571305559ad9fdf4a093afd41506b35c8a306fa945f80a2005b50610350610383610a2a565b9050610345565b5061033b610396610a2a565b9050610330565b506103226103a9610a2a565b9050610317565b90508181813d83116103d6575b6103c781836105b6565b8101031261017f57515f6102e1565b503d6103bd565b84513d5f823e3d90fd5b91506103f1610a2a565b916102b0565b9650915f9160649493610408610a2a565b98919350919394506102a3565b95505f968383541660448d51809a8193639cd07acb60e01b8352818b8401528160248401525af180156104815789975f91610452575b509561029e565b88819992503d831161047a575b61046981836105b6565b8101031261017f578896515f61044b565b503d61045f565b8b513d5f823e3d90fd5b8781989297503d83116104b5575b6104a381836105b6565b8101031261017f57879551945f610293565b503d610499565b8a513d5f823e3d90fd5b90506104d0610a2a565b90610242565b92506104e0610a2a565b92610239565b3461017f575f36600319011261017f576020906001548152f35b503461017f57602036600319011261017f57356001600160a01b0381169081900361017f576bffffffffffffffffffffffff60a01b60025416176002555f80f35b604060031982011261017f576004359160243567ffffffffffffffff9283821161017f578060238301121561017f57816004013593841161017f576024848301011161017f576024019190565b67ffffffffffffffff81116105a257604052565b634e487b7160e01b5f52604160045260245ffd5b90601f8019910116810190811067ffffffffffffffff8211176105a257604052565b92919267ffffffffffffffff82116105a25760405191610602601f8201601f1916602001846105b6565b82948184528183011161017f578281602093845f960137010152565b815190919015610774575f80516020610a7e8339815191525460405163045fc19560e11b81526004810193909352336024840152608060448401528151608484018190526001600160a01b0392918316918491905f5b82811061075c57505091815f60a4828683836020998401015260056064830152601f801991011681010301925af191821561071d575f92610728575b507f9e7b61f58c47dc699ac88507c4f5bb9f121c03808c5676a8078fe583e46497005416803b1561017f57604051630f8e573b60e21b815260048101839052336024820152905f908290604490829084905af1801561071d57610711575090565b61071a9061058e565b90565b6040513d5f823e3d90fd5b9091506020813d602011610754575b81610744602093836105b6565b8101031261017f5751905f6106b0565b3d9150610737565b602082820181015160a4898401015287945001610674565b50801561083f577f9e7b61f58c47dc699ac88507c4f5bb9f121c03808c5676a8078fe583e4649700546040516382027b6d60e01b81526004810183905233602482015290602090829060449082906001600160a01b03165afa90811561071d575f91610804575b50156107e45790565b604051630276b5d960e01b81526004810191909152336024820152604490fd5b90506020813d602011610837575b8161081f602093836105b6565b8101031261017f5751801515810361017f575f6107db565b3d9150610812565b5061071a610a2a565b9081156108eb575b80156108d9575b602090606460018060a01b035f80516020610a7e8339815191525416935f60405195869485936303056db360e31b8552600485015260248401528160448401525af190811561071d575f916108aa575090565b90506020813d6020116108d1575b816108c5602093836105b6565b8101031261017f575190565b3d91506108b8565b5060206108e4610a2a565b9050610857565b90506108f5610a2a565b90610850565b4660010361090857600190565b4662aa36a7036109185761271190565b617a694614610925575f90565b5f1990565b90811561099e575b801561098c575b602090606460018060a01b035f80516020610a7e8339815191525416935f604051958694859363022f65e760e31b8552600485015260248401528160448401525af190811561071d575f916108aa575090565b506020610997610a2a565b9050610939565b90506109a8610a2a565b90610932565b7f9e7b61f58c47dc699ac88507c4f5bb9f121c03808c5676a8078fe583e4649700546001600160a01b031691823b1561017f57604051635ca4b5b160e11b815260048101929092526001600160a01b03166024820152905f908290604490829084905af1801561071d57610a1f5750565b610a289061058e565b565b5f80516020610a7e83398151915254604051639cd07acb60e01b81525f60048201819052600560248301529091602091839160449183916001600160a01b03165af190811561071d575f916108aa57509056fe9e7b61f58c47dc699ac88507c4f5bb9f121c03808c5676a8078fe583e4649701a26469706673582212204b1d2499d9ab7010623e360d21cacd82445293f4955fa1077c2bd1d55def473764736f6c634300081800339e7b61f58c47dc699ac88507c4f5bb9f121c03808c5676a8078fe583e4649701",
  "linkReferences": {},
  "deployedLinkReferences": {}
}