{
  "_format": "hh-sol-artifact-1",
  "contractName": "PrivateCollateralVault",
  "sourceName": "contracts/PrivateCollateralVault.sol",
  "abi": [
    {
      "inputs": [],
      "stateMutability": "nonpayable",
      "type": "constructor"
    },
    {
      "inputs": [
        {
          "internalType": "bytes32",
          "name": "handle",
          "type": "bytes32"
        },
        {
          "internalType": "address",
          "name": "sender",
          "type": "address"
        }
      ],
      "name": "SenderNotAllowedToUseHandle",
      "type": "error"
    },
    {
      "inputs": [],
      "name": "ZamaProtocolUnsupported",
      "type": "error"
    },
    {
      "anonymous": false,
      "inputs": [
        {
          "indexed": true,
          "internalType": "address",
          "name": "user",
          "type": "address"
        }
      ],
      "name": "CollateralDeposited",
      "type": "event"
    },
    {
      "anonymous": false,
      "inputs": [
        {
          "indexed": true,
          "internalType": "address",
          "name": "user",
          "type": "address"
        }
      ],
      "name": "CollateralWithdrawn",
      "type": "event"
    },
    {
      "inputs": [
        {
          "internalType": "address",
          "name": "contractAddress",
          "type": "address"
        }
      ],
      "name": "authorizeContract",
      "outputs": [],
      "stateMutability": "nonpayable",
      "type": "function"
    },
    {
      "inputs": [],
      "name": "confidentialProtocolId",
      "outputs": [
        {
          "internalType": "uint256",
          "name": "",
          "type": "uint256"
        }
      ],
      "stateMutability": "view",
      "type": "function"
    },
    {
      "inputs": [
        {
          "internalType": "externalEuint64",
          "name": "encryptedAmount",
          "type": "bytes32"
        },
        {
          "internalType": "bytes",
          "name": "inputProof",
          "type": "bytes"
        }
      ],
      "name": "depositCollateral",
      "outputs": [],
      "stateMutability": "nonpayable",
      "type": "function"
    },
    {
      "inputs": [
        {
          "internalType": "address",
          "name": "user",
          "type": "address"
        }
      ],
      "name": "getCollateralAmount",
      "outputs": [
        {
          "internalType": "euint64",
          "name": "",
          "type": "bytes32"
        }
      ],
      "stateMutability": "view",
      "type": "function"
    },
    {
      "inputs": [
        {
          "internalType": "externalEuint64",
          "name": "encryptedAmount",
          "type": "bytes32"
        },
        {
          "internalType": "bytes",
          "name": "inputProof",
          "type": "bytes"
        }
      ],
      "name": "withdrawCollateral",
      "outputs": [],
      "stateMutability": "nonpayable",
      "type": "function"
    }
  ],
  "bytecode": "0x604060808152346200021e576200001562000256565b50466001036200012f576200002962000256565b506200003462000222565b73ca2e8f1f656cd25c01f05d0b243ab1ecd4a8ffb6815273d82385dada1ae3e969447f20a3164f6213100e7560208201527377627828a55156b04ac0dc0eb30467f1a552bb03828201525b80517f9e7b61f58c47dc699ac88507c4f5bb9f121c03808c5676a8078fe583e464970080546001600160a01b03199081166001600160a01b039384161790915560208301517f9e7b61f58c47dc699ac88507c4f5bb9f121c03808c5676a8078fe583e464970180548316918416919091179055918301517f9e7b61f58c47dc699ac88507c4f5bb9f121c03808c5676a8078fe583e46497028054909316911617905551610b139081620002738239f35b4662aa36a7036200019f576200014462000256565b506200014f62000222565b73f0ffdc93b7e186bc2f8cb3daa75d86d1930a433d81527392c920834ec8941d2c77d188936e1f7a6f49c127602082015273be0e383937d564d7ff0bc3b46c51f0bf8d5c311a828201526200007f565b46617a69036200020e57620001b362000256565b50620001be62000222565b7350157cffd6bbfa2dece204a89ec419c23ef5755d815273e3a9105a3a932253a70f126eb1e3b589c643dd24602082015273be0e383937d564d7ff0bc3b46c51f0bf8d5c311a828201526200007f565b516373cac13b60e01b8152600490fd5b5f80fd5b60405190606082016001600160401b038111838210176200024257604052565b634e487b7160e01b5f52604160045260245ffd5b6200026062000222565b905f82525f60208301525f604083015256fe6080604081815260049182361015610015575f80fd5b5f3560e01c908163654c6295146105b45750806367561d931461051a57806388412f63146102215780638927b030146101fe5763fda7d34f14610056575f80fd5b346101b65761007a61007461006a366105eb565b92919236916106cb565b90610711565b335f526020925f8452825f20805415155f146101ef575484918382156101df575b156101cb575b6064905f60018060a01b035f80516020610abe83398151915254168751968795869463022f65e760e31b865285015260248401528160448401525af19081156101c1575f9161018e575b50610141925f91338352828252838320555b33825281815282822054801561017b575b6101199030906109bf565b338252818152828220548015610168575b6101359033906109bf565b338252525f205461093b565b337fd4214f554639bc69896dab335296473fd72a11520095258c80f22bd515acb9f75f80a2005b50610135610174610a3b565b905061012a565b50610119610187610a3b565b905061010e565b90508281813d83116101ba575b6101a581836106a9565b810103126101b657516101416100eb565b5f80fd5b503d61019b565b82513d5f823e3d90fd5b925060646101d7610a3b565b9390506100a1565b91506101e9610a3b565b9161009b565b610141949150915f92556100fd565b50346101b6575f3660031901126101b65760209061021a610990565b9051908152f35b5090346101b65761023761007461006a366105eb565b91335f526020915f8352815f20548091858615928361050a575b801593846104fa575b60018060a01b0392885f80516020610abe83398151915293606486865416935f8c519586948593631d44e90160e21b85528c85015260248401528160448401525af19081156104f0575f916104c3575b5085879a928215610448575b610438575b610420575b90606489925f868654168b519d8e958694637702dcff60e01b86528b860152602485015260448401525af180156104165787985f98969798916103e7575b508096946103d7575b156103bd575b606492915f915416875196879586946303056db360e31b865285015260248401528160448401525af19081156101c1575f9161038e575b50610367925f913383528282528084842055801561017b576101199030906109bf565b337fe5d1c8c974618db76114a0279933f5451b9a9e715f98bdd9c5a543e81a9268aa5f80a2005b90508281813d83116103b6575b6103a581836106a9565b810103126101b65751610367610344565b503d61039b565b9450905f6064926103cc610a3b565b96915091925061030d565b93506103e1610a3b565b93610307565b86819792503d831161040f575b6103fe81836106a9565b810103126101b6578794515f6102fe565b503d6103f4565b86513d5f823e3d90fd5b98508790606461042e610a3b565b9a919250506102c0565b9150610442610a3b565b916102bb565b9150505f898585541660448b5180948193639cd07acb60e01b8352818c8401528160248401525af19081156104b9579087915f91610488575b50916102b6565b8092508b8092503d83116104b2575b6104a181836106a9565b810103126101b6578690515f610481565b503d610497565b89513d5f823e3d90fd5b90508881813d83116104e9575b6104da81836106a9565b810103126101b657515f6102aa565b503d6104d0565b88513d5f823e3d90fd5b9050610504610a3b565b9061025a565b9050610514610a3b565b90610251565b5090346101b65760203660031901126101b6576001600160a01b039181358381169291908390036101b657825f5260016020525f20805460ff81161561055c57005b60ff1916600117905560025490680100000000000000008210156105a1575080600161058b9201600255610638565b909283549160031b92831b921b19161790555f80f35b604190634e487b7160e01b5f525260245ffd5b905082346101b65760203660031901126101b657356001600160a01b03811692908390036101b6576020925f525f83525f20548152f35b60406003198201126101b6576004359160243567ffffffffffffffff928382116101b657806023830112156101b65781600401359384116101b657602484830101116101b6576024019190565b60025481101561066d5760025f527f405787fa12a823e0f2b7631cc41b3ba8828b3321ca811111fa75cd3aa3bb5ace01905f90565b634e487b7160e01b5f52603260045260245ffd5b67ffffffffffffffff811161069557604052565b634e487b7160e01b5f52604160045260245ffd5b90601f8019910116810190811067ffffffffffffffff82111761069557604052565b92919267ffffffffffffffff821161069557604051916106f5601f8201601f1916602001846106a9565b8294818452818301116101b6578281602093845f960137010152565b815190919015610867575f80516020610abe8339815191525460405163045fc19560e11b81526004810193909352336024840152608060448401528151608484018190526001600160a01b0392918316918491905f5b82811061084f57505091815f60a4828683836020998401015260056064830152601f801991011681010301925af1918215610810575f9261081b575b507f9e7b61f58c47dc699ac88507c4f5bb9f121c03808c5676a8078fe583e46497005416803b156101b657604051630f8e573b60e21b815260048101839052336024820152905f908290604490829084905af1801561081057610804575090565b61080d90610681565b90565b6040513d5f823e3d90fd5b9091506020813d602011610847575b81610837602093836106a9565b810103126101b65751905f6107a3565b3d915061082a565b602082820181015160a4898401015287945001610767565b508015610932577f9e7b61f58c47dc699ac88507c4f5bb9f121c03808c5676a8078fe583e4649700546040516382027b6d60e01b81526004810183905233602482015290602090829060449082906001600160a01b03165afa908115610810575f916108f7575b50156108d75790565b604051630276b5d960e01b81526004810191909152336024820152604490fd5b90506020813d60201161092a575b81610912602093836106a9565b810103126101b6575180151581036101b6575f6108ce565b3d9150610905565b5061080d610a3b565b905f5b60025481101561098b5780610975610957600193610638565b9054908691871561097b575b858060a01b039160031b1c16906109bf565b0161093e565b9150610985610a3b565b91610963565b509050565b4660010361099d57600190565b4662aa36a7036109ad5761271190565b617a6946146109ba575f90565b5f1990565b7f9e7b61f58c47dc699ac88507c4f5bb9f121c03808c5676a8078fe583e4649700546001600160a01b031691823b156101b657604051635ca4b5b160e11b815260048101929092526001600160a01b03166024820152905f908290604490829084905af1801561081057610a305750565b610a3990610681565b565b5f80516020610abe83398151915254604051639cd07acb60e01b81525f60048201819052600560248301529091602091839160449183916001600160a01b03165af1908115610810575f91610a8e575090565b90506020813d602011610ab5575b81610aa9602093836106a9565b810103126101b6575190565b3d9150610a9c56fe9e7b61f58c47dc699ac88507c4f5bb9f121c03808c5676a8078fe583e4649701a264697066735822122091cc499b5d84013391f87d7ebf686e9ce2364949bfadef62b9695cba13f9094d64736f6c63430008180033",
  "linkReferences": {},
  "deployedLinkReferences": {}
}