{
  "_format": "hh-sol-artifact-1",
  "contractName": "PrivateBorrowManager",
  "sourceName": "contracts/PrivateBorrowManager.sol",
  "abi": [
    {
      "inputs": [
        {
          "internalType": "address",
          "name": "_collateralVault",
          "type": "address"
        }
      ],
      "stateMutability": "nonpayable",
      "type": "constructor"
    },
    {
      "inputs": [
        {
          "internalType": "bytes32",
          "name": "handle",
          "type": "bytes32"
        },
        {
          "internalType": "address",
          "name": "sender",
          "type": "address"
        }
      ],
      "name": "SenderNotAllowedToUseHandle",
      "type": "error"
    },
    {
      "inputs": [],
      "name": "ZamaProtocolUnsupported",
      "type": "error"
    },
    {
      "anonymous": false,
      "inputs": [
        {
          "indexed": true,
          "internalType": "address",
          "name": "user",
          "type": "address"
        }
      ],
      "name": "Borrowed",
      "type": "event"
    },
    {
      "anonymous": false,
      "inputs": [
        {
          "indexed": true,
          "internalType": "address",
          "name": "user",
          "type": "address"
        }
      ],
      "name": "Repaid",
      "type": "event"
    },
    {
      "inputs": [
        {
          "internalType": "address",
          "name": "contractAddress",
          "type": "address"
        }
      ],
      "name": "authorizeContract",
      "outputs": [],
      "stateMutability": "nonpayable",
      "type": "function"
    },
    {
      "inputs": [
        {
          "internalType": "externalEuint64",
          "name": "encryptedAmount",
          "type": "bytes32"
        },
        {
          "internalType": "bytes",
          "name": "inputProof",
          "type": "bytes"
        }
      ],
      "name": "borrow",
      "outputs": [],
      "stateMutability": "nonpayable",
      "type": "function"
    },
    {
      "inputs": [],
      "name": "collateralVault",
      "outputs": [
        {
          "internalType": "contract PrivateCollateralVault",
          "name": "",
          "type": "address"
        }
      ],
      "stateMutability": "view",
      "type": "function"
    },
    {
      "inputs": [],
      "name": "confidentialProtocolId",
      "outputs": [
        {
          "internalType": "uint256",
          "name": "",
          "type": "uint256"
        }
      ],
      "stateMutability": "view",
      "type": "function"
    },
    {
      "inputs": [
        {
          "internalType": "address",
          "name": "user",
          "type": "address"
        }
      ],
      "name": "getDebtAmount",
      "outputs": [
        {
          "internalType": "euint64",
          "name": "",
          "type": "bytes32"
        }
      ],
      "stateMutability": "view",
      "type": "function"
    },
    {
      "inputs": [],
      "name": "lendingPool",
      "outputs": [
        {
          "internalType": "address",
          "name": "",
          "type": "address"
        }
      ],
      "stateMutability": "view",
      "type": "function"
    },
    {
      "inputs": [
        {
          "internalType": "externalEuint64",
          "name": "encryptedAmount",
          "type": "bytes32"
        },
        {
          "internalType": "bytes",
          "name": "inputProof",
          "type": "bytes"
        }
      ],
      "name": "repay",
      "outputs": [],
      "stateMutability": "nonpayable",
      "type": "function"
    },
    {
      "inputs": [
        {
          "internalType": "address",
          "name": "_vault",
          "type": "address"
        }
      ],
      "name": "setCollateralVault",
      "outputs": [],
      "stateMutability": "nonpayable",
      "type": "function"
    },
    {
      "inputs": [
        {
          "internalType": "address",
          "name": "_lendingPool",
          "type": "address"
        }
      ],
      "name": "setLendingPool",
      "outputs": [],
      "stateMutability": "nonpayable",
      "type": "function"
    }
  ],
  "bytecode": "0x6080346200026a57601f6200114838819003918201601f191683019291906001600160401b038411838510176200026e5781602092849260409687528339810103126200026a57516001600160a01b03808216918290036200026a5762000065620002a2565b5046600103620001785762000079620002a2565b506200008462000282565b73ca2e8f1f656cd25c01f05d0b243ab1ecd4a8ffb6815273d82385dada1ae3e969447f20a3164f6213100e7560208201527377627828a55156b04ac0dc0eb30467f1a552bb0384820152905b83818351169260018060a01b0319937f9e7b61f58c47dc699ac88507c4f5bb9f121c03808c5676a8078fe583e46497009085825416179055826020820151167f9e7b61f58c47dc699ac88507c4f5bb9f121c03808c5676a8078fe583e464970190858254161790550151167f9e7b61f58c47dc699ac88507c4f5bb9f121c03808c5676a8078fe583e464970290828254161790555f5416175f5551610e899081620002bf8239f35b4662aa36a703620001e9576200018d620002a2565b506200019862000282565b73f0ffdc93b7e186bc2f8cb3daa75d86d1930a433d81527392c920834ec8941d2c77d188936e1f7a6f49c127602082015273be0e383937d564d7ff0bc3b46c51f0bf8d5c311a8482015290620000d0565b46617a69036200025957620001fd620002a2565b506200020862000282565b7350157cffd6bbfa2dece204a89ec419c23ef5755d815273e3a9105a3a932253a70f126eb1e3b589c643dd24602082015273be0e383937d564d7ff0bc3b46c51f0bf8d5c311a8482015290620000d0565b82516373cac13b60e01b8152600490fd5b5f80fd5b634e487b7160e01b5f52604160045260245ffd5b60405190606082016001600160401b038111838210176200026e57604052565b620002ac62000282565b905f82525f60208301525f604083015256fe608060409080825260049081361015610016575f80fd5b5f3560e01c9081630bece79c146107aa57508063113aa8b11461076957806313c5d38f1461042c57806367561d931461039657806368a806c4146103575780638927b03014610334578063a59a99731461030c578063a612ce2b146102d25763f61ff56814610083575f80fd5b34610234576100a76100a1610097366107cc565b9291923691610863565b906108f2565b91335f5260209160028352815f205480918580156102c2575b821592836102b4575b60018060a01b0391875f80516020610e34833981519152926064858554169b5f8b519d8e948593631d44e90160e21b85528b85015260248401528160448401525af19889156102aa5790889987989997925f91610273575b509061012d9291610bcf565b9593610263575b8515610249575b606492915f915416875196879586946303056db360e31b865285015260248401528160448401525af190811561023f575f9161020c575b506101bf92600291335f5282825280845f205580156101f9575b610197903090610db7565b335f52818152825f205480156101e6575b6101b3903390610db7565b335f52525f2054610ce0565b337f05d1afa4e43dbce3b369dc63aa54be0236311f52799da52a837aeb34453824eb5f80a2005b506101b36101f2610d64565b90506101a8565b50610197610205610d64565b905061018c565b90508281813d8311610238575b6102238183610841565b8101031261023457516101bf610172565b5f80fd5b503d610219565b82513d5f823e3d90fd5b9450905f606492610258610d64565b96915091925061013b565b925061026d610d64565b92610134565b97809293508891503d83116102a3575b61028d8183610841565b810103126102345794518895879161012d610121565b503d610283565b87513d5f823e3d90fd5b506102bd610d64565b6100c9565b95506102cc610d64565b956100c0565b503461023457602036600319011261023457356001600160a01b0381169190829003610234576020915f5260028252805f20549051908152f35b8234610234575f3660031901126102345760015490516001600160a01b039091168152602090f35b8234610234575f36600319011261023457602090610350610d35565b9051908152f35b503461023457602036600319011261023457356001600160a01b03811690819003610234576bffffffffffffffffffffffff60a01b5f5416175f555f80f35b5034610234576020366003190112610234576001600160a01b0391813583811692919083900361023457825f5260036020525f20805460ff8116156103d757005b60ff191660011790558054906801000000000000000082101561041957600182019055610403906108a9565b909283549160031b92831b921b19161790555f80f35b604190634e487b7160e01b5f525260245ffd5b509034610234576104426100a1610097366107cc565b335f5260209060028252825f205493602460018060a01b039184835f541687519384809263654c629560e01b825233868301525afa91821561075f575f92610730575b50839287948815610720575b15610710575b855f80516020610e3483398151915294606483875416975f8b51998a94859363022f65e760e31b85528985015260248401528160448401525af19485156102aa575f956106e1575b50808454169287519087826044815f639cd07acb60e01b998a835260648a840152600560248401525af19182156106d7579088915f936106a4575b505f9261052691610b1c565b94604484885416918b5194859384928352609689840152600560248401525af190811561069a579087949392915f91610668575b506105659087610b1c565b948315610658575b851561063e575b606492915f91541689519687958694631391547f60e01b865285015260248401528160448401525af1908115610634575f91610600575b506105d994600293926105bd92610bcf565b335f5282825280845f205580156101f957610197903090610db7565b337f7c2296a8bd586b4860d6bfdd0917f50dffd764d8bfdb183f865296fff404d7095f80a2005b905082818193943d831161062d575b6106198183610841565b8101031261023457519091906105d96105ab565b503d61060f565b84513d5f823e3d90fd5b9450905f60649261064d610d64565b969150919250610574565b9250610662610d64565b9261056d565b85819692503d8311610693575b61067f8183610841565b81010312610234576105658794519061055a565b503d610675565b88513d5f823e3d90fd5b92509082813d81116106d0575b6106bb8183610841565b8101031261023457905190879061052661051a565b503d6106b1565b89513d5f823e3d90fd5b9094508581813d8311610709575b6106f98183610841565b810103126102345751935f6104df565b503d6106ef565b925061071a610d64565b92610497565b945061072a610d64565b94610491565b9091508481813d8311610758575b6107488183610841565b810103126102345751905f610485565b503d61073e565b86513d5f823e3d90fd5b503461023457602036600319011261023457356001600160a01b03811690819003610234576bffffffffffffffffffffffff60a01b60015416176001555f80f35b34610234575f366003190112610234575f546001600160a01b03168152602090f35b6040600319820112610234576004359160243567ffffffffffffffff9283821161023457806023830112156102345781600401359384116102345760248483010111610234576024019190565b67ffffffffffffffff811161082d57604052565b634e487b7160e01b5f52604160045260245ffd5b90601f8019910116810190811067ffffffffffffffff82111761082d57604052565b92919267ffffffffffffffff821161082d576040519161088d601f8201601f191660200184610841565b829481845281830111610234578281602093845f960137010152565b6004548110156108de5760045f527f8a35acfbc15ff81a39ae7d344fd709f28e8600b4aa8c65c6b64bfe7fe36bd19b01905f90565b634e487b7160e01b5f52603260045260245ffd5b815190919015610a48575f80516020610e348339815191525460405163045fc19560e11b81526004810193909352336024840152608060448401528151608484018190526001600160a01b0392918316918491905f5b828110610a3057505091815f60a4828683836020998401015260056064830152601f801991011681010301925af19182156109f1575f926109fc575b507f9e7b61f58c47dc699ac88507c4f5bb9f121c03808c5676a8078fe583e46497005416803b1561023457604051630f8e573b60e21b815260048101839052336024820152905f908290604490829084905af180156109f1576109e5575090565b6109ee90610819565b90565b6040513d5f823e3d90fd5b9091506020813d602011610a28575b81610a1860209383610841565b810103126102345751905f610984565b3d9150610a0b565b602082820181015160a4898401015287945001610948565b508015610b13577f9e7b61f58c47dc699ac88507c4f5bb9f121c03808c5676a8078fe583e4649700546040516382027b6d60e01b81526004810183905233602482015290602090829060449082906001600160a01b03165afa9081156109f1575f91610ad8575b5015610ab85790565b604051630276b5d960e01b81526004810191909152336024820152604490fd5b90506020813d602011610b0b575b81610af360209383610841565b8101031261023457518015158103610234575f610aaf565b3d9150610ae6565b506109ee610d64565b908115610bbf575b8015610bad575b602090606460018060a01b035f80516020610e348339815191525416935f6040519586948593630afe14ad60e31b8552600485015260248401528160448401525af19081156109f1575f91610b7e575090565b90506020813d602011610ba5575b81610b9960209383610841565b81010312610234575190565b3d9150610b8c565b506020610bb8610d64565b9050610b2b565b9050610bc9610d64565b90610b24565b91908215610c5c575b8015610c4e575b8115610c38575b6064602092935f60018060a01b035f80516020610e3483398151915254166040519687958694637702dcff60e01b86526004860152602485015260448401525af19081156109f1575f91610b7e575090565b602091506064610c46610d64565b925050610be6565b50610c57610d64565b610bdf565b91505f602060018060a01b035f80516020610e348339815191525416604460405180948193639cd07acb60e01b83528160048401528160248401525af19081156109f1575f91610cae575b5091610bd8565b90506020813d602011610cd8575b81610cc960209383610841565b8101031261023457515f610ca7565b3d9150610cbc565b905f5b600454811015610d305780610d1a610cfc6001936108a9565b90549086918715610d20575b858060a01b039160031b1c1690610db7565b01610ce3565b9150610d2a610d64565b91610d08565b509050565b46600103610d4257600190565b4662aa36a703610d525761271190565b617a694614610d5f575f90565b5f1990565b5f80516020610e3483398151915254604051639cd07acb60e01b81525f60048201819052600560248301529091602091839160449183916001600160a01b03165af19081156109f1575f91610b7e575090565b7f9e7b61f58c47dc699ac88507c4f5bb9f121c03808c5676a8078fe583e4649700546001600160a01b031691823b1561023457604051635ca4b5b160e11b815260048101929092526001600160a01b03166024820152905f908290604490829084905af180156109f157610e285750565b610e3190610819565b56fe9e7b61f58c47dc699ac88507c4f5bb9f121c03808c5676a8078fe583e4649701a264697066735822122068fe1b4d0f913b4e53e52be64c85f0375c7188c7a7a7260100edb07628a86e4964736f6c63430008180033",
  "linkReferences": {},
  "deployedLinkReferences": {}
}